{
  "_format": "hh-sol-artifact-1",
  "contractName": "ERC1155",
  "sourceName": "contracts/token/NFTees/ERC1155.sol",
  "abi": [
    {
      "inputs": [
        {
          "internalType": "string",
          "name": "uri_",
          "type": "string"
        }
      ],
      "stateMutability": "nonpayable",
      "type": "constructor"
    },
    {
      "anonymous": false,
      "inputs": [
        {
          "indexed": true,
          "internalType": "address",
          "name": "account",
          "type": "address"
        },
        {
          "indexed": true,
          "internalType": "address",
          "name": "operator",
          "type": "address"
        },
        {
          "indexed": false,
          "internalType": "bool",
          "name": "approved",
          "type": "bool"
        }
      ],
      "name": "ApprovalForAll",
      "type": "event"
    },
    {
      "anonymous": false,
      "inputs": [
        {
          "indexed": true,
          "internalType": "address",
          "name": "operator",
          "type": "address"
        },
        {
          "indexed": true,
          "internalType": "address",
          "name": "from",
          "type": "address"
        },
        {
          "indexed": true,
          "internalType": "address",
          "name": "to",
          "type": "address"
        },
        {
          "indexed": false,
          "internalType": "uint256[]",
          "name": "ids",
          "type": "uint256[]"
        },
        {
          "indexed": false,
          "internalType": "uint256[]",
          "name": "values",
          "type": "uint256[]"
        }
      ],
      "name": "TransferBatch",
      "type": "event"
    },
    {
      "anonymous": false,
      "inputs": [
        {
          "indexed": true,
          "internalType": "address",
          "name": "operator",
          "type": "address"
        },
        {
          "indexed": true,
          "internalType": "address",
          "name": "from",
          "type": "address"
        },
        {
          "indexed": true,
          "internalType": "address",
          "name": "to",
          "type": "address"
        },
        {
          "indexed": false,
          "internalType": "uint256",
          "name": "id",
          "type": "uint256"
        },
        {
          "indexed": false,
          "internalType": "uint256",
          "name": "value",
          "type": "uint256"
        }
      ],
      "name": "TransferSingle",
      "type": "event"
    },
    {
      "anonymous": false,
      "inputs": [
        {
          "indexed": false,
          "internalType": "string",
          "name": "value",
          "type": "string"
        },
        {
          "indexed": true,
          "internalType": "uint256",
          "name": "id",
          "type": "uint256"
        }
      ],
      "name": "URI",
      "type": "event"
    },
    {
      "inputs": [
        {
          "internalType": "address",
          "name": "account",
          "type": "address"
        },
        {
          "internalType": "uint256",
          "name": "id",
          "type": "uint256"
        }
      ],
      "name": "balanceOf",
      "outputs": [
        {
          "internalType": "uint256",
          "name": "",
          "type": "uint256"
        }
      ],
      "stateMutability": "view",
      "type": "function"
    },
    {
      "inputs": [
        {
          "internalType": "address[]",
          "name": "accounts",
          "type": "address[]"
        },
        {
          "internalType": "uint256[]",
          "name": "ids",
          "type": "uint256[]"
        }
      ],
      "name": "balanceOfBatch",
      "outputs": [
        {
          "internalType": "uint256[]",
          "name": "",
          "type": "uint256[]"
        }
      ],
      "stateMutability": "view",
      "type": "function"
    },
    {
      "inputs": [
        {
          "internalType": "uint256",
          "name": "amount",
          "type": "uint256"
        },
        {
          "internalType": "string",
          "name": "URI",
          "type": "string"
        }
      ],
      "name": "create",
      "outputs": [],
      "stateMutability": "nonpayable",
      "type": "function"
    },
    {
      "inputs": [
        {
          "internalType": "address",
          "name": "account",
          "type": "address"
        },
        {
          "internalType": "address",
          "name": "operator",
          "type": "address"
        }
      ],
      "name": "isApprovedForAll",
      "outputs": [
        {
          "internalType": "bool",
          "name": "",
          "type": "bool"
        }
      ],
      "stateMutability": "view",
      "type": "function"
    },
    {
      "inputs": [],
      "name": "minter",
      "outputs": [
        {
          "internalType": "address",
          "name": "",
          "type": "address"
        }
      ],
      "stateMutability": "view",
      "type": "function"
    },
    {
      "inputs": [
        {
          "internalType": "address",
          "name": "from",
          "type": "address"
        },
        {
          "internalType": "address",
          "name": "to",
          "type": "address"
        },
        {
          "internalType": "uint256[]",
          "name": "ids",
          "type": "uint256[]"
        },
        {
          "internalType": "uint256[]",
          "name": "amounts",
          "type": "uint256[]"
        },
        {
          "internalType": "bytes",
          "name": "data",
          "type": "bytes"
        }
      ],
      "name": "safeBatchTransferFrom",
      "outputs": [],
      "stateMutability": "nonpayable",
      "type": "function"
    },
    {
      "inputs": [
        {
          "internalType": "address",
          "name": "from",
          "type": "address"
        },
        {
          "internalType": "address",
          "name": "to",
          "type": "address"
        },
        {
          "internalType": "uint256",
          "name": "id",
          "type": "uint256"
        },
        {
          "internalType": "uint256",
          "name": "amount",
          "type": "uint256"
        },
        {
          "internalType": "bytes",
          "name": "data",
          "type": "bytes"
        }
      ],
      "name": "safeTransferFrom",
      "outputs": [],
      "stateMutability": "nonpayable",
      "type": "function"
    },
    {
      "inputs": [
        {
          "internalType": "address",
          "name": "operator",
          "type": "address"
        },
        {
          "internalType": "bool",
          "name": "approved",
          "type": "bool"
        }
      ],
      "name": "setApprovalForAll",
      "outputs": [],
      "stateMutability": "nonpayable",
      "type": "function"
    },
    {
      "inputs": [
        {
          "internalType": "bytes4",
          "name": "interfaceId",
          "type": "bytes4"
        }
      ],
      "name": "supportsInterface",
      "outputs": [
        {
          "internalType": "bool",
          "name": "",
          "type": "bool"
        }
      ],
      "stateMutability": "view",
      "type": "function"
    },
    {
      "inputs": [],
      "name": "tokenIndex",
      "outputs": [
        {
          "internalType": "uint256",
          "name": "",
          "type": "uint256"
        }
      ],
      "stateMutability": "view",
      "type": "function"
    },
    {
      "inputs": [
        {
          "internalType": "uint256",
          "name": "",
          "type": "uint256"
        }
      ],
      "name": "uri",
      "outputs": [
        {
          "internalType": "string",
          "name": "",
          "type": "string"
        }
      ],
      "stateMutability": "view",
      "type": "function"
    }
  ],
  "bytecode": "0x60806040523480156200001157600080fd5b5060405162002e0c38038062002e0c8339818101604052810190620000379190620001ce565b62000048816200009060201b60201c565b33600360006101000a81548173ffffffffffffffffffffffffffffffffffffffff021916908373ffffffffffffffffffffffffffffffffffffffff1602179055505062000344565b8060029080519060200190620000a8929190620000ac565b5050565b828054620000ba90620002b0565b90600052602060002090601f016020900481019282620000de57600085556200012a565b82601f10620000f957805160ff19168380011785556200012a565b828001600101855582156200012a579182015b82811115620001295782518255916020019190600101906200010c565b5b5090506200013991906200013d565b5090565b5b80821115620001585760008160009055506001016200013e565b5090565b6000620001736200016d8462000247565b62000213565b9050828152602081018484840111156200018c57600080fd5b620001998482856200027a565b509392505050565b600082601f830112620001b357600080fd5b8151620001c58482602086016200015c565b91505092915050565b600060208284031215620001e157600080fd5b600082015167ffffffffffffffff811115620001fc57600080fd5b6200020a84828501620001a1565b91505092915050565b6000604051905081810181811067ffffffffffffffff821117156200023d576200023c62000315565b5b8060405250919050565b600067ffffffffffffffff82111562000265576200026462000315565b5b601f19601f8301169050602081019050919050565b60005b838110156200029a5780820151818401526020810190506200027d565b83811115620002aa576000848401525b50505050565b60006002820490506001821680620002c957607f821691505b60208210811415620002e057620002df620002e6565b5b50919050565b7f4e487b7100000000000000000000000000000000000000000000000000000000600052602260045260246000fd5b7f4e487b7100000000000000000000000000000000000000000000000000000000600052604160045260246000fd5b612ab880620003546000396000f3fe608060405234801561001057600080fd5b50600436106100a85760003560e01c80632eb2c2d6116100715780632eb2c2d6146101775780634e1273f414610193578063a22cb465146101c3578063d55f9273146101df578063e985e9c5146101fd578063f242432a1461022d576100a8565b8062fdd58e146100ad5780630118fa49146100dd57806301ffc9a7146100f957806307546172146101295780630e89341c14610147575b600080fd5b6100c760048036038101906100c29190611b9c565b610249565b6040516100d4919061256c565b60405180910390f35b6100f760048036038101906100f29190611cbf565b610312565b005b610113600480360381019061010e9190611c44565b6103cf565b60405161012091906123cf565b60405180910390f35b6101316104b1565b60405161013e9190612299565b60405180910390f35b610161600480360381019061015c9190611c96565b6104d7565b60405161016e91906123ea565b60405180910390f35b610191600480360381019061018c9190611a12565b61056b565b005b6101ad60048036038101906101a89190611bd8565b610961565b6040516101ba9190612376565b60405180910390f35b6101dd60048036038101906101d89190611b60565b610b12565b005b6101e7610c93565b6040516101f4919061256c565b60405180910390f35b610217600480360381019061021291906119d6565b610c99565b60405161022491906123cf565b60405180910390f35b61024760048036038101906102429190611ad1565b610d2d565b005b60008073ffffffffffffffffffffffffffffffffffffffff168373ffffffffffffffffffffffffffffffffffffffff1614156102ba576040517f08c379a00000000000000000000000000000000000000000000000000000000081526004016102b19061244c565b60405180910390fd5b60008083815260200190815260200160002060008473ffffffffffffffffffffffffffffffffffffffff1673ffffffffffffffffffffffffffffffffffffffff16815260200190815260200160002054905092915050565b600360009054906101000a900473ffffffffffffffffffffffffffffffffffffffff1673ffffffffffffffffffffffffffffffffffffffff163373ffffffffffffffffffffffffffffffffffffffff161461036c57600080fd5b610389336004548460405180602001604052806000815250611045565b8060056000600454815260200190815260200160002090805190602001906103b29291906116ce565b50600460008154809291906103c69061287c565b91905055505050565b60007fd9b67a26000000000000000000000000000000000000000000000000000000007bffffffffffffffffffffffffffffffffffffffffffffffffffffffff1916827bffffffffffffffffffffffffffffffffffffffffffffffffffffffff1916148061049a57507f0e89341c000000000000000000000000000000000000000000000000000000007bffffffffffffffffffffffffffffffffffffffffffffffffffffffff1916827bffffffffffffffffffffffffffffffffffffffffffffffffffffffff1916145b806104aa57506104a9826111db565b5b9050919050565b600360009054906101000a900473ffffffffffffffffffffffffffffffffffffffff1681565b6060600280546104e69061284a565b80601f01602080910402602001604051908101604052809291908181526020018280546105129061284a565b801561055f5780601f106105345761010080835404028352916020019161055f565b820191906000526020600020905b81548152906001019060200180831161054257829003601f168201915b50505050509050919050565b81518351146105af576040517f08c379a00000000000000000000000000000000000000000000000000000000081526004016105a69061252c565b60405180910390fd5b600073ffffffffffffffffffffffffffffffffffffffff168473ffffffffffffffffffffffffffffffffffffffff16141561061f576040517f08c379a00000000000000000000000000000000000000000000000000000000081526004016106169061248c565b60405180910390fd5b610627611245565b73ffffffffffffffffffffffffffffffffffffffff168573ffffffffffffffffffffffffffffffffffffffff16148061066d575061066c85610667611245565b610c99565b5b6106ac576040517f08c379a00000000000000000000000000000000000000000000000000000000081526004016106a3906124ac565b60405180910390fd5b60006106b6611245565b90506106c681878787878761124d565b60005b84518110156108cc57600085828151811061070d577f4e487b7100000000000000000000000000000000000000000000000000000000600052603260045260246000fd5b602002602001015190506000858381518110610752577f4e487b7100000000000000000000000000000000000000000000000000000000600052603260045260246000fd5b60200260200101519050600080600084815260200190815260200160002060008b73ffffffffffffffffffffffffffffffffffffffff1673ffffffffffffffffffffffffffffffffffffffff168152602001908152602001600020549050818110156107f3576040517f08c379a00000000000000000000000000000000000000000000000000000000081526004016107ea906124cc565b60405180910390fd5b81816107ff9190612760565b60008085815260200190815260200160002060008c73ffffffffffffffffffffffffffffffffffffffff1673ffffffffffffffffffffffffffffffffffffffff168152602001908152602001600020819055508160008085815260200190815260200160002060008b73ffffffffffffffffffffffffffffffffffffffff1673ffffffffffffffffffffffffffffffffffffffff16815260200190815260200160002060008282546108b1919061270a565b92505081905550505050806108c59061287c565b90506106c9565b508473ffffffffffffffffffffffffffffffffffffffff168673ffffffffffffffffffffffffffffffffffffffff168273ffffffffffffffffffffffffffffffffffffffff167f4a39dc06d4c0dbc64b70af90fd698a233a518aa5d07e595d983b8c0526c8f7fb8787604051610943929190612398565b60405180910390a4610959818787878787611255565b505050505050565b606081518351146109a7576040517f08c379a000000000000000000000000000000000000000000000000000000000815260040161099e9061250c565b60405180910390fd5b6000835167ffffffffffffffff8111156109ea577f4e487b7100000000000000000000000000000000000000000000000000000000600052604160045260246000fd5b604051908082528060200260200182016040528015610a185781602001602082028036833780820191505090505b50905060005b8451811015610b0757610ab1858281518110610a63577f4e487b7100000000000000000000000000000000000000000000000000000000600052603260045260246000fd5b6020026020010151858381518110610aa4577f4e487b7100000000000000000000000000000000000000000000000000000000600052603260045260246000fd5b6020026020010151610249565b828281518110610aea577f4e487b7100000000000000000000000000000000000000000000000000000000600052603260045260246000fd5b60200260200101818152505080610b009061287c565b9050610a1e565b508091505092915050565b8173ffffffffffffffffffffffffffffffffffffffff16610b31611245565b73ffffffffffffffffffffffffffffffffffffffff161415610b88576040517f08c379a0000000000000000000000000000000000000000000000000000000008152600401610b7f906124ec565b60405180910390fd5b8060016000610b95611245565b73ffffffffffffffffffffffffffffffffffffffff1673ffffffffffffffffffffffffffffffffffffffff16815260200190815260200160002060008473ffffffffffffffffffffffffffffffffffffffff1673ffffffffffffffffffffffffffffffffffffffff16815260200190815260200160002060006101000a81548160ff0219169083151502179055508173ffffffffffffffffffffffffffffffffffffffff16610c42611245565b73ffffffffffffffffffffffffffffffffffffffff167f17307eab39ab6107e8899845ad3d59bd9653f200f220920489ca2b5937696c3183604051610c8791906123cf565b60405180910390a35050565b60045481565b6000600160008473ffffffffffffffffffffffffffffffffffffffff1673ffffffffffffffffffffffffffffffffffffffff16815260200190815260200160002060008373ffffffffffffffffffffffffffffffffffffffff1673ffffffffffffffffffffffffffffffffffffffff16815260200190815260200160002060009054906101000a900460ff16905092915050565b600073ffffffffffffffffffffffffffffffffffffffff168473ffffffffffffffffffffffffffffffffffffffff161415610d9d576040517f08c379a0000000000000000000000000000000000000000000000000000000008152600401610d949061248c565b60405180910390fd5b610da5611245565b73ffffffffffffffffffffffffffffffffffffffff168573ffffffffffffffffffffffffffffffffffffffff161480610deb5750610dea85610de5611245565b610c99565b5b610e2a576040517f08c379a0000000000000000000000000000000000000000000000000000000008152600401610e219061246c565b60405180910390fd5b6000610e34611245565b9050610e54818787610e4588611425565b610e4e88611425565b8761124d565b600080600086815260200190815260200160002060008873ffffffffffffffffffffffffffffffffffffffff1673ffffffffffffffffffffffffffffffffffffffff16815260200190815260200160002054905083811015610eeb576040517f08c379a0000000000000000000000000000000000000000000000000000000008152600401610ee2906124cc565b60405180910390fd5b8381610ef79190612760565b60008087815260200190815260200160002060008973ffffffffffffffffffffffffffffffffffffffff1673ffffffffffffffffffffffffffffffffffffffff168152602001908152602001600020819055508360008087815260200190815260200160002060008873ffffffffffffffffffffffffffffffffffffffff1673ffffffffffffffffffffffffffffffffffffffff1681526020019081526020016000206000828254610fa9919061270a565b925050819055508573ffffffffffffffffffffffffffffffffffffffff168773ffffffffffffffffffffffffffffffffffffffff168373ffffffffffffffffffffffffffffffffffffffff167fc3d58168c5ae7397731d063d5bbf3d657854427343f4c083240f7aacaa2d0f628888604051611026929190612587565b60405180910390a461103c8288888888886114eb565b50505050505050565b600073ffffffffffffffffffffffffffffffffffffffff168473ffffffffffffffffffffffffffffffffffffffff1614156110b5576040517f08c379a00000000000000000000000000000000000000000000000000000000081526004016110ac9061254c565b60405180910390fd5b60006110bf611245565b90506110e0816000876110d188611425565b6110da88611425565b8761124d565b8260008086815260200190815260200160002060008773ffffffffffffffffffffffffffffffffffffffff1673ffffffffffffffffffffffffffffffffffffffff168152602001908152602001600020600082825461113f919061270a565b925050819055508473ffffffffffffffffffffffffffffffffffffffff16600073ffffffffffffffffffffffffffffffffffffffff168273ffffffffffffffffffffffffffffffffffffffff167fc3d58168c5ae7397731d063d5bbf3d657854427343f4c083240f7aacaa2d0f6287876040516111bd929190612587565b60405180910390a46111d4816000878787876114eb565b5050505050565b60007f01ffc9a7000000000000000000000000000000000000000000000000000000007bffffffffffffffffffffffffffffffffffffffffffffffffffffffff1916827bffffffffffffffffffffffffffffffffffffffffffffffffffffffff1916149050919050565b600033905090565b505050505050565b6112748473ffffffffffffffffffffffffffffffffffffffff166116bb565b1561141d578373ffffffffffffffffffffffffffffffffffffffff1663bc197c8187878686866040518663ffffffff1660e01b81526004016112ba9594939291906122b4565b602060405180830381600087803b1580156112d457600080fd5b505af192505050801561130557506040513d601f19601f820116820180604052508101906113029190611c6d565b60015b61139457611311612970565b8061131c5750611359565b806040517f08c379a000000000000000000000000000000000000000000000000000000000815260040161135091906123ea565b60405180910390fd5b6040517f08c379a000000000000000000000000000000000000000000000000000000000815260040161138b9061240c565b60405180910390fd5b63bc197c8160e01b7bffffffffffffffffffffffffffffffffffffffffffffffffffffffff1916817bffffffffffffffffffffffffffffffffffffffffffffffffffffffff19161461141b576040517f08c379a00000000000000000000000000000000000000000000000000000000081526004016114129061242c565b60405180910390fd5b505b505050505050565b60606000600167ffffffffffffffff81111561146a577f4e487b7100000000000000000000000000000000000000000000000000000000600052604160045260246000fd5b6040519080825280602002602001820160405280156114985781602001602082028036833780820191505090505b50905082816000815181106114d6577f4e487b7100000000000000000000000000000000000000000000000000000000600052603260045260246000fd5b60200260200101818152505080915050919050565b61150a8473ffffffffffffffffffffffffffffffffffffffff166116bb565b156116b3578373ffffffffffffffffffffffffffffffffffffffff1663f23a6e6187878686866040518663ffffffff1660e01b815260040161155095949392919061231c565b602060405180830381600087803b15801561156a57600080fd5b505af192505050801561159b57506040513d601f19601f820116820180604052508101906115989190611c6d565b60015b61162a576115a7612970565b806115b257506115ef565b806040517f08c379a00000000000000000000000000000000000000000000000000000000081526004016115e691906123ea565b60405180910390fd5b6040517f08c379a00000000000000000000000000000000000000000000000000000000081526004016116219061240c565b60405180910390fd5b63f23a6e6160e01b7bffffffffffffffffffffffffffffffffffffffffffffffffffffffff1916817bffffffffffffffffffffffffffffffffffffffffffffffffffffffff1916146116b1576040517f08c379a00000000000000000000000000000000000000000000000000000000081526004016116a89061242c565b60405180910390fd5b505b505050505050565b600080823b905060008111915050919050565b8280546116da9061284a565b90600052602060002090601f0160209004810192826116fc5760008555611743565b82601f1061171557805160ff1916838001178555611743565b82800160010185558215611743579182015b82811115611742578251825591602001919060010190611727565b5b5090506117509190611754565b5090565b5b8082111561176d576000816000905550600101611755565b5090565b600061178461177f846125e1565b6125b0565b905080838252602082019050828560208602820111156117a357600080fd5b60005b858110156117d357816117b988826118c5565b8452602084019350602083019250506001810190506117a6565b5050509392505050565b60006117f06117eb8461260d565b6125b0565b9050808382526020820190508285602086028201111561180f57600080fd5b60005b8581101561183f578161182588826119c1565b845260208401935060208301925050600181019050611812565b5050509392505050565b600061185c61185784612639565b6125b0565b90508281526020810184848401111561187457600080fd5b61187f848285612808565b509392505050565b600061189a61189584612669565b6125b0565b9050828152602081018484840111156118b257600080fd5b6118bd848285612808565b509392505050565b6000813590506118d481612a26565b92915050565b600082601f8301126118eb57600080fd5b81356118fb848260208601611771565b91505092915050565b600082601f83011261191557600080fd5b81356119258482602086016117dd565b91505092915050565b60008135905061193d81612a3d565b92915050565b60008135905061195281612a54565b92915050565b60008151905061196781612a54565b92915050565b600082601f83011261197e57600080fd5b813561198e848260208601611849565b91505092915050565b600082601f8301126119a857600080fd5b81356119b8848260208601611887565b91505092915050565b6000813590506119d081612a6b565b92915050565b600080604083850312156119e957600080fd5b60006119f7858286016118c5565b9250506020611a08858286016118c5565b9150509250929050565b600080600080600060a08688031215611a2a57600080fd5b6000611a38888289016118c5565b9550506020611a49888289016118c5565b945050604086013567ffffffffffffffff811115611a6657600080fd5b611a7288828901611904565b935050606086013567ffffffffffffffff811115611a8f57600080fd5b611a9b88828901611904565b925050608086013567ffffffffffffffff811115611ab857600080fd5b611ac48882890161196d565b9150509295509295909350565b600080600080600060a08688031215611ae957600080fd5b6000611af7888289016118c5565b9550506020611b08888289016118c5565b9450506040611b19888289016119c1565b9350506060611b2a888289016119c1565b925050608086013567ffffffffffffffff811115611b4757600080fd5b611b538882890161196d565b9150509295509295909350565b60008060408385031215611b7357600080fd5b6000611b81858286016118c5565b9250506020611b928582860161192e565b9150509250929050565b60008060408385031215611baf57600080fd5b6000611bbd858286016118c5565b9250506020611bce858286016119c1565b9150509250929050565b60008060408385031215611beb57600080fd5b600083013567ffffffffffffffff811115611c0557600080fd5b611c11858286016118da565b925050602083013567ffffffffffffffff811115611c2e57600080fd5b611c3a85828601611904565b9150509250929050565b600060208284031215611c5657600080fd5b6000611c6484828501611943565b91505092915050565b600060208284031215611c7f57600080fd5b6000611c8d84828501611958565b91505092915050565b600060208284031215611ca857600080fd5b6000611cb6848285016119c1565b91505092915050565b60008060408385031215611cd257600080fd5b6000611ce0858286016119c1565b925050602083013567ffffffffffffffff811115611cfd57600080fd5b611d0985828601611997565b9150509250929050565b6000611d1f838361227b565b60208301905092915050565b611d3481612794565b82525050565b6000611d45826126a9565b611d4f81856126d7565b9350611d5a83612699565b8060005b83811015611d8b578151611d728882611d13565b9750611d7d836126ca565b925050600181019050611d5e565b5085935050505092915050565b611da1816127a6565b82525050565b6000611db2826126b4565b611dbc81856126e8565b9350611dcc818560208601612817565b611dd581612952565b840191505092915050565b6000611deb826126bf565b611df581856126f9565b9350611e05818560208601612817565b611e0e81612952565b840191505092915050565b6000611e266034836126f9565b91507f455243313135353a207472616e7366657220746f206e6f6e204552433131353560008301527f526563656976657220696d706c656d656e7465720000000000000000000000006020830152604082019050919050565b6000611e8c6028836126f9565b91507f455243313135353a204552433131353552656365697665722072656a6563746560008301527f6420746f6b656e730000000000000000000000000000000000000000000000006020830152604082019050919050565b6000611ef2602b836126f9565b91507f455243313135353a2062616c616e636520717565727920666f7220746865207a60008301527f65726f20616464726573730000000000000000000000000000000000000000006020830152604082019050919050565b6000611f586029836126f9565b91507f455243313135353a2063616c6c6572206973206e6f74206f776e6572206e6f7260008301527f20617070726f76656400000000000000000000000000000000000000000000006020830152604082019050919050565b6000611fbe6025836126f9565b91507f455243313135353a207472616e7366657220746f20746865207a65726f20616460008301527f64726573730000000000000000000000000000000000000000000000000000006020830152604082019050919050565b60006120246032836126f9565b91507f455243313135353a207472616e736665722063616c6c6572206973206e6f742060008301527f6f776e6572206e6f7220617070726f76656400000000000000000000000000006020830152604082019050919050565b600061208a602a836126f9565b91507f455243313135353a20696e73756666696369656e742062616c616e636520666f60008301527f72207472616e73666572000000000000000000000000000000000000000000006020830152604082019050919050565b60006120f06029836126f9565b91507f455243313135353a2073657474696e6720617070726f76616c2073746174757360008301527f20666f722073656c6600000000000000000000000000000000000000000000006020830152604082019050919050565b60006121566029836126f9565b91507f455243313135353a206163636f756e747320616e6420696473206c656e67746860008301527f206d69736d6174636800000000000000000000000000000000000000000000006020830152604082019050919050565b60006121bc6028836126f9565b91507f455243313135353a2069647320616e6420616d6f756e7473206c656e6774682060008301527f6d69736d617463680000000000000000000000000000000000000000000000006020830152604082019050919050565b60006122226021836126f9565b91507f455243313135353a206d696e7420746f20746865207a65726f2061646472657360008301527f73000000000000000000000000000000000000000000000000000000000000006020830152604082019050919050565b612284816127fe565b82525050565b612293816127fe565b82525050565b60006020820190506122ae6000830184611d2b565b92915050565b600060a0820190506122c96000830188611d2b565b6122d66020830187611d2b565b81810360408301526122e88186611d3a565b905081810360608301526122fc8185611d3a565b905081810360808301526123108184611da7565b90509695505050505050565b600060a0820190506123316000830188611d2b565b61233e6020830187611d2b565b61234b604083018661228a565b612358606083018561228a565b818103608083015261236a8184611da7565b90509695505050505050565b600060208201905081810360008301526123908184611d3a565b905092915050565b600060408201905081810360008301526123b28185611d3a565b905081810360208301526123c68184611d3a565b90509392505050565b60006020820190506123e46000830184611d98565b92915050565b600060208201905081810360008301526124048184611de0565b905092915050565b6000602082019050818103600083015261242581611e19565b9050919050565b6000602082019050818103600083015261244581611e7f565b9050919050565b6000602082019050818103600083015261246581611ee5565b9050919050565b6000602082019050818103600083015261248581611f4b565b9050919050565b600060208201905081810360008301526124a581611fb1565b9050919050565b600060208201905081810360008301526124c581612017565b9050919050565b600060208201905081810360008301526124e58161207d565b9050919050565b60006020820190508181036000830152612505816120e3565b9050919050565b6000602082019050818103600083015261252581612149565b9050919050565b60006020820190508181036000830152612545816121af565b9050919050565b6000602082019050818103600083015261256581612215565b9050919050565b6000602082019050612581600083018461228a565b92915050565b600060408201905061259c600083018561228a565b6125a9602083018461228a565b9392505050565b6000604051905081810181811067ffffffffffffffff821117156125d7576125d6612923565b5b8060405250919050565b600067ffffffffffffffff8211156125fc576125fb612923565b5b602082029050602081019050919050565b600067ffffffffffffffff82111561262857612627612923565b5b602082029050602081019050919050565b600067ffffffffffffffff82111561265457612653612923565b5b601f19601f8301169050602081019050919050565b600067ffffffffffffffff82111561268457612683612923565b5b601f19601f8301169050602081019050919050565b6000819050602082019050919050565b600081519050919050565b600081519050919050565b600081519050919050565b6000602082019050919050565b600082825260208201905092915050565b600082825260208201905092915050565b600082825260208201905092915050565b6000612715826127fe565b9150612720836127fe565b9250827fffffffffffffffffffffffffffffffffffffffffffffffffffffffffffffffff03821115612755576127546128c5565b5b828201905092915050565b600061276b826127fe565b9150612776836127fe565b925082821015612789576127886128c5565b5b828203905092915050565b600061279f826127de565b9050919050565b60008115159050919050565b60007fffffffff0000000000000000000000000000000000000000000000000000000082169050919050565b600073ffffffffffffffffffffffffffffffffffffffff82169050919050565b6000819050919050565b82818337600083830152505050565b60005b8381101561283557808201518184015260208101905061281a565b83811115612844576000848401525b50505050565b6000600282049050600182168061286257607f821691505b60208210811415612876576128756128f4565b5b50919050565b6000612887826127fe565b91507fffffffffffffffffffffffffffffffffffffffffffffffffffffffffffffffff8214156128ba576128b96128c5565b5b600182019050919050565b7f4e487b7100000000000000000000000000000000000000000000000000000000600052601160045260246000fd5b7f4e487b7100000000000000000000000000000000000000000000000000000000600052602260045260246000fd5b7f4e487b7100000000000000000000000000000000000000000000000000000000600052604160045260246000fd5b6000601f19601f8301169050919050565b60008160e01c9050919050565b600060443d101561298057612a23565b60046000803e612991600051612963565b6308c379a081146129a25750612a23565b60405160043d036004823e80513d602482011167ffffffffffffffff821117156129ce57505050612a23565b808201805167ffffffffffffffff8111156129ed575050505050612a23565b8060208301013d8501811115612a0857505050505050612a23565b612a1182612952565b60208401016040528296505050505050505b90565b612a2f81612794565b8114612a3a57600080fd5b50565b612a46816127a6565b8114612a5157600080fd5b50565b612a5d816127b2565b8114612a6857600080fd5b50565b612a74816127fe565b8114612a7f57600080fd5b5056fea2646970667358221220a066eeca36818c847341f8e956f2b97494fedb029796bb981a768c94d7b6fbff64736f6c63430008000033",
  "linkReferences": {},
  "deployedLinkReferences": {}
}